:020000040800F2
:10000000005000204D0400087D0300087F03000815
:100010008103000883030008850300080000000036
:10002000000000000000000000000000870300083E
:1000300089030008000000008B0300088D030008FE
:10004000950400089504000895040008950400082C
:10005000950400089504000895040008950400081C
:10006000950400089504000895040008950400080C
:1000700095040008950400089504000895040008FC
:1000800095040008950400089504000895040008EC
:1000900095040008950400089504000895040008DC
:1000A00095040008950400089504000895040008CC
:1000B00095040008950400089504000895040008BC
:1000C00095040008950400089504000895040008AC
:1000D000950400089504000895040008950400089C
:1000E000950400089504000895040008000000002D
:1000F0000000000000000000000000000000000000
:0C01000000000000000000005FF808F1A3
:10010C0010B5054C237833B9044B13B10448AFF345
:10011C0000800123237010BD680000200000000047
:10012C000C1B000808B5034B1BB103490348AFF384
:10013C00008008BD000000006C0000200C1B0008B3
:10014C000B4A936943F0040393610A4B1A6822F03B
:10015C0001021A601A6822F002021A601A6822F070
:10016C0004021A601A6842F008021A60704700BF55
:10017C00001002400008014010B590B0142200217C
:10018C0008A800F044FF1422002101A800F03FFF52
:10019C0002244FF480330122CDE90D43CDE906232F
:1001AC004FF4E01306A80A920F9300F0FFFA08B17F
:1001BC0072B6FEE70F23CDE901344FF48063039050
:1001CC00CDE90430214601A800F0B2FC08B172B6AA
:1001DC00FEE710B010BD0000F0B589B000F07AF960
:1001EC00FFF7CAFF102200210DEB020000F00FFFF9
:1001FC00474B4FF400519A69464842F010029A61FD
:10020C009A69012602F010020092009A9A69002461
:10021C0042F020029A619A69022502F020020192B2
:10022C00019A9A693C4F42F004029A619A6902F071
:10023C0004020292029A9A6942F008029A619B693E
:10024C00002203F008030393039B00F0A9FA002299
:10025C002421324800F0A4FA4FF400532D4804A98D
:10026C00CDE90436CDE9064500F0C0F92A4804A9C9
:10027C00CDE90464CDE9064500F0B8F924232748FC
:10028C0004A9CDE90436CDE9064500F0AFF9FFF736
:10029C0057FF224D1F4E0121384600F07BFA0446D1
:1002AC00012204211D4800F07BFA012C0AD12246C0
:1002BC004FF40051304600F073FA224620212846B4
:1002CC0000F06EFA4FF4FA7000F028F9284600227C
:1002DC00042100F065FA304600224FF4005100F082
:1002EC005FFA0F4C00222021284600F059FA4FF4F7
:1002FC00FA7000F013F921780A4800F033FE2378E5
:10030C0001332370084B1B68986800F055FDC2E759
:10031C00001002400010014000080140000C014098
:10032C0084000020241B0008180000200E4B82B013
:10033C009A6942F001029A619A6902F001020092F4
:10034C00009ADA6942F08052DA61DB69074A03F0FD
:10035C0080530193019B536823F0E06343F00073D7
:10036C00536002B0704700BF001002400000014013
:10037C00FEE7FEE7FEE7FEE7FEE7704770477047D3
:10038C0000F0BAB84FF0E022D2F8FC3D43F0807395
:10039C00C2F8FC3D4FF06043D3F8002E42F001024E
:1003AC00C3F8002E1A68D207FCD51860704770B5D8
:1003BC000D4614460E46731B9C4201DC204670BD54
:1003CC00AFF3008006F8010BF5E738B514460D467F
:1003DC006B1A9C4201DC204638BD15F8010BFFF767
:1003EC00D1FFF5E74FF0FF3070474FF4005300207A
:1003FC004B60704701207047002070470B4A034642
:10040C00116810B509B90A491160106809490A4CFC
:10041C000344091B8B4206D900F048FE0C230360F1
:10042C004FF0FF3010BD1360FCE700BF88000020C8
:10043C00E001002000500020000400007047000084
:10044C00FFF7FCFF0B480C490C4A002302E0D45880
:10045C00C4500433C4188C42F9D3094A094C002304
:10046C0001E013600432A242FBD300F025FEFFF73B
:10047C00B3FE70470000002068000020941B0008A9
:10048C0068000020DC010020FEE7000038B50E4BB0
:10049C0005461A784FF47A73B3FBF2F30B4A1068E3
:1004AC00B0FBF3F000F08EF8044658B90F2D09D8C4
:1004BC00024629464FF0FF3000F054F82046044B1A
:1004CC001D6038BD0120FCE7040000200000002066
:1004DC0008000020074A08B51368032043F01003F6
:1004EC00136000F02DF80F20FFF7D0FFFFF71EFF71
:1004FC00002008BD00200240034A044B11681B7801
:10050C000B441360704700BF8C00002004000020D7
:10051C00014B1868704700BF8C00002038B50446AA
:10052C00FFF7F6FF0546631C1EBF044B1B78E4184F
:10053C00FFF7EEFF431BA342FAD338BD04000020A3
:10054C0007490302CA6803F4E06322F4E062120470
:10055C00120C134343F0BF6343F40033CB6070477A
:10056C0000ED00E0154B30B5DC68C4F30224C4F197
:10057C000703251D042B28BF0423062D4FF0FF3540
:10058C0094BF0024033C05FA03F321EA0303A540BE
:10059C0022EA0502A340002843EA0203ACBF00F1A3
:1005AC006040074A4FEA0313DBB2ABBF00F5614072
:1005BC0000F00F0080F80033135430BD00ED00E064
:1005CC0014ED00E00138B0F1807F0BD24FF0E02346
:1005DC00F021054A586182F8231000200722986107
:1005EC001A6170470120704700ED00E02DE9F74FCC
:1005FC0000244FF00F0E2646DFF884C1614B00F14A
:10060C0004080A6832FA06F502D103B0BDE8F08F8F
:10061C00012505FA06F702EA070537EA020276D148
:10062C004A68032A07D8013A022A00F28380DFE8DD
:10063C0002F091969C00122A00F0948069D8112A3D
:10064C0000F08A80FF2D94BF8146C1464FEA860296
:10065C00D9F8007088BF203A0EFA02FA27EA0A0786
:10066C0004FA02F21743C9F80070D1F8049019F09B
:10067C00805F4CD0DCF8182026F0030742F0010212
:10068C00CCF81820DCF8182007F1804702F00102A2
:10069C00019207F5803706F0030A019A4FEA8A0A9D
:1006AC00BA680EFA0AFB22EA0B0B374A904260D06A
:1006BC0002F5806290425ED002F5806290425CD07E
:1006CC0002F58062904214BF0422032202FA0AF25D
:1006DC0042EA0B02BA609A6819F4801F14BF2A43CD
:1006EC00AA439A60DA6819F4001F14BF2A43AA437C
:1006FC00DA605A6819F4003F14BF2A43AA435A60BF
:10070C001A6819F4803F14BF2A43AA431A600136B1
:10071C0077E7DFF878904A450CD014D8A9F5801902
:10072C004A4507D009F570294A4503D0A9F5801927
:10073C004A4587D18A68D2B1012A4FF008040CBF10
:10074C00076147617EE7DFF848904A45F2D009F52A
:10075C008039EDE7CC6875E7CC68043472E7CC6877
:10076C0008346FE7CC680C346CE700246AE7042487
:10077C0068E70022AAE70122A8E70222A6E700BF49
:10078C00001002400004014000080140000022104B
:10079C00000031108368194214BF012000207047FB
:1007AC000AB1016170470904FBE700002DE9F34130
:1007BC00054638B30368DB0710D42B689F075ED45B
:1007CC002B68190700F195802B685A0700F1C1803E
:1007DC00EB69002B40F02C81002029E0904C6368E1
:1007EC0003F00C03042B07D0636803F00C03082BF5
:1007FC000AD16368DE0307D523689C03DDD56B68DB
:10080C00002BDAD1012013E06B68B3F5803F12D1D5
:10081C00236843F480332360FFF77AFE064623688F
:10082C009803CAD4FFF774FE801B6428F7D9032001
:10083C0002B0BDE8F0819BB9236823F480332360B8
:10084C00236823F480232360FFF762FE06462368A7
:10085C009903B2D5FFF75CFE801B6428F7D9E6E755
:10086C00B3F5A02F236803D143F480232360CFE793
:10087C0023F480332360236823F48023CBE7684C74
:10088C00636813F00C0F07D0636803F00C03082B9C
:10089C0010D16368DA030DD423689B0702D52B694A
:1008AC00012BAFD123686A6923F0F80343EAC20332
:1008BC00236085E72A695B4B6AB101221A60FFF756
:1008CC0027FE064623689F07ECD4FFF721FE801B0A
:1008DC000228F7D9ABE71A60FFF71AFE0646236821
:1008EC0098077FF56DAFFFF713FE801B0228F6D932
:1008FC009DE7AA694A4E4B4BE2B10122C3F8802412
:10090C00FFF706FE0446736A9B070DD54FF4FA52A7
:10091C00454B1B68B3FBF2F3019300BF019B5A1EBE
:10092C000192002BF9D14FE7FFF7F2FD001B0228D3
:10093C00E9D97CE7C3F88024FFF7EAFD0446736A23
:10094C009F077FF541AFFFF7E3FD001B0228F6D9A7
:10095C006DE7334CE369D80024D40127E36943F0F5
:10096C008053E361E36903F080530093009B2F4EA7
:10097C003368D90518D5EB68012B26D1236A43F0CF
:10098C0001032362FFF7C4FD41F288380646236A4F
:10099C009B073FD5002F3FF41BAFE36923F0805337
:1009AC00E36115E70027E2E7336843F480733360B3
:1009BC00FFF7AEFD80463368DA05DCD4FFF7A8FDFF
:1009CC00A0EB08006428F6D931E7ABB9236A41F2F1
:1009DC00883823F001032362236A23F00403236283
:1009EC00FFF796FD0646236A9807D3D5FFF790FDCF
:1009FC00801B4045F7D91AE7052B236A03D143F036
:100A0C0004032362BAE723F001032362236A23F071
:100A1C000403B6E7FFF77CFD801B4045B7D906E71A
:100A2C000010024000004242000000200070004014
:100A3C002A4C626802F00C02082A3ED00022022BDB
:100A4C00274B1A662CD1FFF763FD064623689901E4
:100A5C0020D42B6AB3F5803F05D16268A96822F4D3
:100A6C0000320A436260696A62680B4322F47412B2
:100A7C001343012263601A4B1A66FFF749FD0546C2
:100A8C0023689A013FF5A8AEFFF742FD401B0228F0
:100A9C00F6D9CCE6FFF73CFD801B0228D6D9C6E67A
:100AAC00FFF736FD054623689B017FF595AEFFF7F2
:100ABC002FFD401B0228F6D9B9E6012B3FF4A2AE5C
:100ACC0060682B6A00F480329A427FF49BAE6B6AAA
:100ADC0000F47010C01A18BF0120A9E600100240E3
:100AEC00000042420D4A536803F00C01082912D150
:100AFC000B48C3F38341DB03405C09D55368094AB7
:100B0C00C3F340435043084AD35CB0FBF3F0704747
:100B1C00064B584370470348704700BF0010024013
:100B2C007A1B000800127A00781B000800093D00AF
:100B3C002DE9F0410D46044610B90120BDE8F081C5
:100B4C00444A136803F007038B4228D321688E07AD
:100B5C0030D4CA0743D43F4A136803F00703AB42AF
:100B6C0065D822683C4D12F0040F6CD1130706D5E2
:100B7C006B68226923F4605343EAC2036B60FFF78E
:100B8C00B1FF6B68354AC3F30313D35CD840344BC5
:100B9C001860344B1868FFF779FC0020CEE7136817
:100BAC0023F007030B431360136803F007038B4216
:100BBC00C3D1CBE7284B11F0040F1EBF5A6842F487
:100BCC00E0625A60080742BF5A6842F460525A60A9
:100BDC005A68A06822F0F00202435A60B9E76268D2
:100BEC001D4E012A33681AD113F4003FA5D0736847
:100BFC0041F2883823F0030313437360FFF788FC3A
:100C0C0007467368626803F00C03B3EB820FA2D043
:100C1C00FFF77EFCC01B4045F3D903208EE7022A68
:100C2C0002D113F0007FE1E713F0020FDEE7136847
:100C3C0023F007032B431360136803F00703AB4245
:100C4C007FF47BAF8DE76B68E16823F4E0630B43C3
:100C5C006B608BE70020024000100240681B00080C
:100C6C000000002008000020B1F90C20F8B5160790
:100C7C0005460C4654D44B68002B02DC0B6C002B45
:100C8C0048DDE66A002E45D0002312F480522F680E
:100C9C00216A2B6030D0626DA389590705D5636832
:100CAC00D21A636B0BB1236CD21A00232846E66A66
:100CBC00216AB047431CA38906D129681D292BD86A
:100CCC00284ACA40D60727D5002262602269D90477
:100CDC00226004D5421C01D12B6803B96065616B9D
:100CEC002F60B9B104F14403994202D0284600F0B8
:100CFC000BFA002363630DE001232846B04702463C
:100D0C00501CC9D12B68002BC6D01D2B01D0162B23
:100D1C001DD12F60002021E043F040031BB21AE0EC
:100D2C000F69002FF6D0930718BF00230E6808BF79
:100D3C004B69F61B0F608B60002EEBDD33463A4699
:100D4C002846216AD4F828C0E047002807DCB4F90B
:100D5C000C3043F040034FF0FF30A381F8BD074443
:100D6C00361AE9E70100402038B50B6905460C46F8
:100D7C0013B90025284638BD18B1036A0BB900F029
:100D8C00BBF8B4F90C30002BF3D0626ED00704D44E
:100D9C00990502D4A06D00F0B4F928462146FFF75E
:100DAC0063FF636E0546DA07E4D4A3899B05E1D49F
:100DBC00A06D00F0A7F9DDE7014620B9044A05490A
:100DCC00054800F0B1B8054B1868FFF7CDBF00BF60
:100DDC000C000020750D00081C00002018000020DD
:100DEC00002310B50446C0E90033C0E90433836026
:100DFC0081814366C2818361194608225C3000F010
:100E0C0006F90D4B246263620C4BA3620C4BE3623C
:100E1C000C4B23630C4B9C4206D003F168029442AA
:100E2C0002D0D0339C4205D104F15800BDE81040EB
:100E3C0000F066B910BD00BF950F0008B70F000891
:100E4C00EF0F00081310000890000020024A03491D
:100E5C00034800F069B800BF0C000020750D0008B5
:100E6C001C00002041680C4B10B59942044601D07F
:100E7C00FFF77AFFA168094B994202D02046FFF791
:100E8C0073FFE168064B994204D02046BDE8104040
:100E9C00FFF76ABF10BD00BF90000020F8000020D3
:100EAC006001002010B50B4B0B4C0C4A20461A600D
:100EBC0004210022FFF794FF04F1680001220921AC
:100ECC00FFF78EFF04F1D0000222BDE81040122182
:100EDC00FFF786BFC801002090000020590E0008C3
:100EEC00014800F00EB900BFD1010020014800F00C
:100EFC0009B900BFD101002010B50446FFF7F0FF7F
:100F0C00236A1BB1BDE81040FFF7F0BF044B23620E
:100F1C00044B1B68002BF5D1FFF7C4FFF2E700BFB1
:100F2C00710E0008C80100202DE9F84307468846D9
:100F3C0014460026D4E90195B9F1010905D52468B8
:100F4C00002CF7D13046BDE8F883AB89012B07D9CB
:100F5C00B5F90E30013303D029463846C047064355
:100F6C006835E9E70FB407B5064904AB086853F8D0
:100F7C00042B8168019300F0E5F903B05DF804EBF4
:100F8C0004B070471800002010B50C46B1F90E10D3
:100F9C0000F068F80028ABBF636DA3891B1823F41D
:100FAC008053ACBF6365A38110BD2DE9F0411F4692
:100FBC008B890546DB050C46164605D50223002217
:100FCC00B1F90E1000F03CF8A389324623F480539B
:100FDC00A38128463B46B4F90E10BDE8F04100F061
:100FEC0053B810B50C46B1F90E1000F029F8431C9B
:100FFC00A38915BF606523F4805343F48053A38108
:10100C0018BFA38110BDB1F90E1000F009B803464A
:10101C000244934200D1704703F8011BF9E700002A
:10102C0038B50023054D044608462B60FFF7DAF966
:10103C00431C02D12B6803B1236038BDCC010020C6
:10104C0038B50446084611460022054D2A601A465A
:10105C00FFF7D2F9431C02D12B6803B1236038BDD2
:10106C00CC01002038B50446084611460022054D37
:10107C002A601A46FFF79BF9431C02D12B6803B177
:10108C00236038BDCC01002038B504460846114613
:10109C000022054D2A601A46FFF797F9431C02D12E
:1010AC002B6803B1236038BDCC010020014B1868BC
:1010BC00704700BF1800002070B500260C4D0D4C79
:1010CC00641BA410A64209D100F01AFD00260A4D9B
:1010DC000A4C641BA410A64205D170BD55F8043B04
:1010EC0098470136EEE755F8043B98470136F2E78E
:1010FC008C1B00088C1B00088C1B0008901B000824
:10110C00704770477047000038B50546002940D03D
:10111C0051F8043C0C1F002BB8BFE41800F0DEF8AB
:10112C001C4A136833B9636014602846BDE8384024
:10113C0000F0DAB8A34208D9206821188B4201BF0D
:10114C0019685B6809182160EDE71A465B680BB1FA
:10115C00A342FAD911685018A0420BD1206801445F
:10116C00501883421160E0D118685B680844106025
:10117C005360DAE702D90C232B60D6E720682118DC
:10118C008B4201BF19685B68091821606360546069
:10119C00CBE738BDD801002070B50F4E0C46316836
:1011AC00054611B900F00AFC30602146284600F0D3
:1011BC0005FC431C03D14FF0FF34204670BDC41C0A
:1011CC0024F00304A042F8D0211A284600F0F6FBC4
:1011DC000130F2D1EFE700BFD40100202DE9F84334
:1011EC00CD1C25F0030508350C2D38BF0C25002D22
:1011FC00064601DBA94204D90C2333600020BDE86C
:10120C00F883DFF8D48000F069F8D8F800301C4679
:10121C0044BB29463046FFF7BFFF431C044658D158
:10122C00D8F800402746002F43D1002C4BD0236820
:10123C003946304604EB030900F0C0FB814542D12E
:10124C00216830466D1A2946FFF7A6FF01303AD0C7
:10125C0023682B442360D8F800305A6862BBC8F866
:10126C0000700FE02268521B20D40B2A17D9611989
:10127C00A342256018BF5960636808BFC8F8001006
:10128C0062514B60304600F02FF804F10B00231D27
:10129C0020F00700C21A1CBF1B1AA350AFE76268EC
:1012AC00A3420CBFC8F800205A60EBE723466468E1
:1012BC00AEE73C467F68B6E71A465B68A342FBD1B3
:1012CC0000235360DEE70C233046336000F00CF84B
:1012DC0094E70560D6E700BFD80100200148FFF76E
:1012EC0010BF00BFD00100200148FFF70BBF00BFAB
:1012FC00D0010020936810B4013B002B936007DAF7
:10130C009469A34201DB0A2902D110BC00F0C2BAD5
:10131C001368581C10601970084610BC7047F8B55B
:10132C0006460F461446D518AC4201D1002007E002
:10133C003A46304614F8011BFFF7DCFF431CF3D18F
:10134C00F8BD00002DE9F04F0D46144698460646B0
:10135C009DB018B1036A0BB9FFF7CEFD6B6ED907C0
:10136C0005D4AB899A0502D4A86DFFF7CAFEAB89E8
:10137C001B0701D52B699BB92946304600F0C8FAEA
:10138C0070B16B6EDC0704D54FF0FF301DB0BDE8BB
:10139C00F08FAB899805F7D4A86DFFF7B3FEF3E790
:1013AC000023099320238DF8293030234FF00109B5
:1013BC00CDF80C80DFF8A8818DF82A3023469A46A8
:1013CC0013F8012B0AB1252AF9D1BAEB040B0BD077
:1013DC005B46224629463046FFF7A1FF013000F05C
:1013EC00A780099A5A4409929AF80030002B00F011
:1013FC009F8000234FF0FF32CDE905230AF1010A4B
:10140C00049307938DF853301A935446052214F81D
:10141C00011B534800F0E2FA049AD8B9D10644BF34
:10142C0020238DF85330130744BF2B238DF85330F2
:10143C009AF800302A2B15D0544600204FF00A0C95
:10144C00079A214611F8013B303B092B4BD9B0B11F
:10145C00079214E0A0EB080309FA03F31343A24626
:10146C000493D2E7039B191D1B680391002BBBBF90
:10147C005B4242F0020207930793B8BF04922378B1
:10148C002E2B0AD163782A2B32D1039B02341A1DDE
:10149C001B68039243EAE3730593DFF8C8A00322A9
:1014AC005046217800F09AFA38B14022049BA0EB08
:1014BC000A00824013430134049314F8011B0622E2
:1014CC0029488DF8281000F089FA00283FD0274BC6
:1014DC001BBB039B073323F0070308330393099BC0
:1014EC003B4409936AE70C4601200CFB0232A8E747
:1014FC0000234FF00A0C194601340593204610F8CE
:10150C00012B303A092A03D9002BC6D00591C4E728
:10151C00044601230CFB0121F0E703AB00932A46A0
:10152C003046134B04A9AFF300800746781CD6D184
:10153C006B6ED90705D4AB899A0502D4A86DFFF759
:10154C00E1FDAB895B063FF51FAF09981EE703ABC6
:10155C0000932A463046064B04A900F07DF8E4E7D8
:10156C00351B00083B1B00083F1B00080000000057
:10157C002B1300082DE9F047164698468A680B692C
:10158C0007469342B8BF1346336091F843200C468C
:10159C00DDF820900AB1013333602368990642BF0D
:1015AC00336802333360256815F0060506D104F163
:1015BC00190AE36832689B1AAB422BDC94F843306F
:1015CC002268003B18BF0123920630D441463846AE
:1015DC0004F14302C847013023D02368226903F089
:1015EC000603042B14BF002533684FF0000608BF18
:1015FC00E56804F11A0408BFED1A54F8123C08BF50
:10160C0025EAE5759342C4BF9B1AED18B5421AD171
:10161C00002008E00123524641463846C8470130B5
:10162C0003D14FF0FF30BDE8F0870135C1E7302022
:10163C00E11881F843005A1C94F8451022440233F7
:10164C0082F84310C2E70123224641463846C84778
:10165C000130E6D00136D9E72DE9FF470F7E9146E0
:10166C00782F80460C469A460C9E01F1430207D80F
:10167C00622F0AD8002F00F0D180582F00F0B880CC
:10168C0004F1420684F842703AE0A7F16303152B8B
:10169C00F6D801A151F823F0FD1600081117000827
:1016AC008D1600088D1600088D1600088D16000882
:1016BC00111700088D1600088D1600088D160008ED
:1016CC008D1600080F1800083B170008C9170008F2
:1016DC008D1600088D160008311800088D160008AC
:1016EC003B1700088D1600088D160008D11700084E
:1016FC0033681A1D1B68326004F1420684F84230CC
:10170C0001239CE033682068191D3160060601D561
:10171C001D6803E04506FBD5B3F90050002D03DA34
:10172C002D236D4284F843300A23584811E0216878
:10173C003368080653F8045B02D4490648BFADB2BF
:10174C006F2F336014BF0A2308235048002184F8FC
:10175C0043106668002EA66005DB21682E4321F03D
:10176C00040121604BD01646B5FBF3F103FB115776
:10177C00C75D06F8017D2F46BB420D46F4D9082BF8
:10178C000BD12368DF0708D5236961689942DEBF56
:10179C00302306F8013C06F1FF36921B22614B46C2
:1017AC0021464046CDF800A003AAFFF7E3FE013026
:1017BC004AD14FF0FF3004B0BDE8F087236843F006
:1017CC00200323607827324884F8457023683168F9
:1017DC001F0651F8045B02D45F0648BFADB23160FE
:1017EC00D90744BF43F0200323601DB11023ADE79C
:1017FC002648E9E7236823F020032360F6E7164622
:10180C00BDE733682568181D616930602E061B68BA
:10181C0001D5196002E06806FBD519800023164635
:10182C002361BCE7336800211A1D32601E686268B0
:10183C00304600F0D3F808B1801B60606368236108
:10184C00002384F84330AAE73246494640462369D0
:10185C00D0470130ADD023689B0713D4E068039BBD
:10186C009842B8BF1846A6E701233246494640467F
:10187C00D04701309DD00135E36803995B1AAB4228
:10188C00F2DCEBE7002504F11906F5E7461B00082E
:10189C00571B0008F8B50E461446054618B1036AE6
:1018AC000BB9FFF729FBA369A360A3891A0701D51C
:1018BC00236943B92146284600F02AF818B14FF0A5
:1018CC00FF373846F8BD23682269F6B2981A636967
:1018DC003746834205DC21462846FFF745FA0028A7
:1018EC00EDD1A368013BA36023685A1C22601E70D3
:1018FC006269431C9A4204D0A389DB07E1D50A2E06
:10190C00DFD121462846FFF72FFA0028D9D0D6E799
:10191C0038B5294B054618680C4618B1036A0BB943
:10192C00FFF7EAFAB4F90C30190722D4DA0607D417
:10193C0009222A6043F040034FF0FF30A38133E0CB
:10194C00580712D5616B41B104F14403994202D09E
:10195C002846FFF7D9FB00236363A38923F02403F4
:10196C00A3810023636023692360A38943F00803E8
:10197C00A38123694BB9A38903F42073B3F5007FCA
:10198C0003D02146284600F05CF8B4F90C3013F073
:10199C0001020AD00022A26062695242A26122694D
:1019AC0042B913F08000C5D138BD990758BF6269A0
:1019BC00A260F4E70020F7E71800002038B50023F8
:1019CC00054D044608462B60FEF718FD431C02D15A
:1019DC002B6803B1236038BDCC010020034610B541
:1019EC00C9B202449342184601D1002003E00478A6
:1019FC0001338C42F6D110BD70B50C46B1F90E1006
:101A0C00154600291E4696B00CDAA389002113F066
:101A1C00800F14BF40234FF48063002031602B6093
:101A2C0016B070BD6A4600F049F80028EDDB01994C
:101A3C0001F47041A1F50053594259414FF48063B0
:101A4C00EBE78B89F7B59D0706460C4607D504F1E5
:101A5C004703236023610123636103B0F0BD6A4631
:101A6C0001ABFFF7C9FF009F054639463046FFF72B
:101A7C00B5FB48B9B4F90C309A05EED423F0030346
:101A8C0043F00203A381E2E7A389C4E9040743F00E
:101A9C008003A381019B20605BB13046B4F90E102A
:101AAC0000F01EF828B1A38923F0030343F00103CF
:101ABC00A381A3891D43A581CFE7000038B500237E
:101ACC00064D0446084611462B60FEF78EFC431C5F
:101ADC0002D12B6803B1236038BD00BFCC010020BC
:101AEC0038B50023054D044608462B60FEF782FCF2
:101AFC00431C02D12B6803B1236038BDCC010020FC
:101B0C00F8B500BFF8BC08BC9E467047F8B500BFDE
:081B1C00F8BC08BC9E467047AE
:101B2400436F756E742076616C75653A2025640A7E
:101B340000232D302B2000686C4C006566674546F9
:101B44004700303132333435363738394142434433
:101B540045460030313233343536373839616263C3
:101B64006465660000000000000000000102030438
:101B740006070809010202030405060708090A0BFF
:081B84000C0D0E0F1010000003
:041B8C00310100081B
:041B90000D0100083B
:101B940000127A00010000001000000000000000A4
:101BA40003000000900000201C0000200000000042
:101BB40090000020F80000206001002000000000D8
:101BC4000000000000000000000000000000000011
:101BD4000000000000000000000000000000000001
:101BE40000000000000000000000000000000000F1
:081BF4000000000000000000E9
:040000050800044D9E
:00000001FF
